{
  "contractName": "Marketplace",
  "abi": [
    {
      "constant": true,
      "inputs": [
        {
          "name": "",
          "type": "address"
        }
      ],
      "name": "admins",
      "outputs": [
        {
          "name": "",
          "type": "bool"
        }
      ],
      "payable": false,
      "stateMutability": "view",
      "type": "function",
      "signature": "0x429b62e5"
    },
    {
      "constant": true,
      "inputs": [
        {
          "name": "",
          "type": "uint256"
        }
      ],
      "name": "storeOwners",
      "outputs": [
        {
          "name": "id",
          "type": "uint256"
        },
        {
          "name": "storeOwnerAddress",
          "type": "address"
        },
        {
          "name": "balance",
          "type": "uint256"
        },
        {
          "name": "enrolled",
          "type": "bool"
        }
      ],
      "payable": false,
      "stateMutability": "view",
      "type": "function",
      "signature": "0x44d50993"
    },
    {
      "constant": true,
      "inputs": [
        {
          "name": "",
          "type": "address"
        },
        {
          "name": "",
          "type": "uint256"
        }
      ],
      "name": "articleIds",
      "outputs": [
        {
          "name": "",
          "type": "uint256"
        }
      ],
      "payable": false,
      "stateMutability": "view",
      "type": "function",
      "signature": "0x6732e40f"
    },
    {
      "constant": false,
      "inputs": [],
      "name": "renounceOwnership",
      "outputs": [],
      "payable": false,
      "stateMutability": "nonpayable",
      "type": "function",
      "signature": "0x715018a6"
    },
    {
      "constant": true,
      "inputs": [],
      "name": "owner",
      "outputs": [
        {
          "name": "",
          "type": "address"
        }
      ],
      "payable": false,
      "stateMutability": "view",
      "type": "function",
      "signature": "0x8da5cb5b"
    },
    {
      "constant": true,
      "inputs": [],
      "name": "isOwner",
      "outputs": [
        {
          "name": "",
          "type": "bool"
        }
      ],
      "payable": false,
      "stateMutability": "view",
      "type": "function",
      "signature": "0x8f32d59b"
    },
    {
      "constant": true,
      "inputs": [
        {
          "name": "",
          "type": "address"
        }
      ],
      "name": "storeOwnersIds",
      "outputs": [
        {
          "name": "",
          "type": "uint256"
        }
      ],
      "payable": false,
      "stateMutability": "view",
      "type": "function",
      "signature": "0x9a9a0775"
    },
    {
      "constant": true,
      "inputs": [
        {
          "name": "",
          "type": "uint256"
        }
      ],
      "name": "articles",
      "outputs": [
        {
          "name": "id",
          "type": "uint256"
        },
        {
          "name": "name",
          "type": "string"
        },
        {
          "name": "description",
          "type": "string"
        },
        {
          "name": "price",
          "type": "uint256"
        },
        {
          "name": "seller",
          "type": "address"
        },
        {
          "name": "buyer",
          "type": "address"
        },
        {
          "name": "articleState",
          "type": "uint8"
        }
      ],
      "payable": false,
      "stateMutability": "view",
      "type": "function",
      "signature": "0xedcfafe6"
    },
    {
      "constant": false,
      "inputs": [
        {
          "name": "newOwner",
          "type": "address"
        }
      ],
      "name": "transferOwnership",
      "outputs": [],
      "payable": false,
      "stateMutability": "nonpayable",
      "type": "function",
      "signature": "0xf2fde38b"
    },
    {
      "anonymous": false,
      "inputs": [
        {
          "indexed": false,
          "name": "_admin",
          "type": "address"
        },
        {
          "indexed": false,
          "name": "_action",
          "type": "string"
        }
      ],
      "name": "EditAdmin",
      "type": "event",
      "signature": "0xc20e1fd1703f17fb02c5216184ebcc3f07f525e751b7b22f9912b32de061a4f6"
    },
    {
      "anonymous": false,
      "inputs": [
        {
          "indexed": false,
          "name": "_storeOwner",
          "type": "address"
        },
        {
          "indexed": false,
          "name": "_action",
          "type": "string"
        }
      ],
      "name": "EditStoreOwner",
      "type": "event",
      "signature": "0xa1ed230c349ed412e91a9b488b37074c9efc888c447ff9fa1619611def35e982"
    },
    {
      "anonymous": false,
      "inputs": [
        {
          "indexed": true,
          "name": "_id",
          "type": "uint256"
        },
        {
          "indexed": true,
          "name": "_seller",
          "type": "address"
        },
        {
          "indexed": false,
          "name": "_name",
          "type": "string"
        },
        {
          "indexed": false,
          "name": "_price",
          "type": "uint256"
        }
      ],
      "name": "LogSellArticle",
      "type": "event",
      "signature": "0xe2ebb0c522a8b90a93f45a5dfd3c0e0516b81519fdf199efe51c474642fe8cec"
    },
    {
      "anonymous": false,
      "inputs": [
        {
          "indexed": true,
          "name": "_id",
          "type": "uint256"
        },
        {
          "indexed": true,
          "name": "_buyer",
          "type": "address"
        },
        {
          "indexed": false,
          "name": "_name",
          "type": "string"
        },
        {
          "indexed": false,
          "name": "_price",
          "type": "uint256"
        }
      ],
      "name": "LogBuyArticle",
      "type": "event",
      "signature": "0x5532c8570cec96b5eb7f093229e4bf02b7fc6b17b23c3058954740f9ba28be07"
    },
    {
      "anonymous": false,
      "inputs": [
        {
          "indexed": true,
          "name": "previousOwner",
          "type": "address"
        },
        {
          "indexed": true,
          "name": "newOwner",
          "type": "address"
        }
      ],
      "name": "OwnershipTransferred",
      "type": "event",
      "signature": "0x8be0079c531659141344cd1fd0a4f28419497f9722a3daafe3b4186f6b6457e0"
    },
    {
      "constant": false,
      "inputs": [
        {
          "name": "newAdmin",
          "type": "address"
        }
      ],
      "name": "addAdmin",
      "outputs": [
        {
          "name": "",
          "type": "bool"
        }
      ],
      "payable": false,
      "stateMutability": "nonpayable",
      "type": "function",
      "signature": "0x70480275"
    },
    {
      "constant": false,
      "inputs": [
        {
          "name": "adminAddress",
          "type": "address"
        }
      ],
      "name": "disableAdmin",
      "outputs": [
        {
          "name": "",
          "type": "bool"
        }
      ],
      "payable": false,
      "stateMutability": "nonpayable",
      "type": "function",
      "signature": "0x751e9a9c"
    },
    {
      "constant": false,
      "inputs": [
        {
          "name": "newStoreOwner",
          "type": "address"
        }
      ],
      "name": "addStoreOwner",
      "outputs": [
        {
          "name": "",
          "type": "bool"
        }
      ],
      "payable": false,
      "stateMutability": "nonpayable",
      "type": "function",
      "signature": "0x9adeb5f1"
    },
    {
      "constant": false,
      "inputs": [
        {
          "name": "id",
          "type": "uint256"
        }
      ],
      "name": "changeStatusEnrolledStoreOwner",
      "outputs": [
        {
          "name": "",
          "type": "bool"
        }
      ],
      "payable": false,
      "stateMutability": "nonpayable",
      "type": "function",
      "signature": "0xda023565"
    },
    {
      "constant": true,
      "inputs": [
        {
          "name": "storeOwnerAddress",
          "type": "address"
        }
      ],
      "name": "checkStoreOwner",
      "outputs": [
        {
          "name": "",
          "type": "bool"
        }
      ],
      "payable": false,
      "stateMutability": "view",
      "type": "function",
      "signature": "0xa14d9098"
    },
    {
      "constant": true,
      "inputs": [],
      "name": "getNumberOfStoreOwners",
      "outputs": [
        {
          "name": "",
          "type": "uint256"
        }
      ],
      "payable": false,
      "stateMutability": "view",
      "type": "function",
      "signature": "0x348799de"
    },
    {
      "constant": false,
      "inputs": [
        {
          "name": "name",
          "type": "string"
        },
        {
          "name": "description",
          "type": "string"
        },
        {
          "name": "price",
          "type": "uint256"
        }
      ],
      "name": "sellArticle",
      "outputs": [],
      "payable": false,
      "stateMutability": "nonpayable",
      "type": "function",
      "signature": "0xd2609515"
    },
    {
      "constant": true,
      "inputs": [],
      "name": "getArticleIds",
      "outputs": [
        {
          "name": "",
          "type": "uint256[]"
        }
      ],
      "payable": false,
      "stateMutability": "view",
      "type": "function",
      "signature": "0xf461871e"
    },
    {
      "constant": false,
      "inputs": [
        {
          "name": "articleId",
          "type": "uint256"
        }
      ],
      "name": "changeArticleState",
      "outputs": [
        {
          "name": "",
          "type": "bool"
        }
      ],
      "payable": false,
      "stateMutability": "nonpayable",
      "type": "function",
      "signature": "0x66a93add"
    },
    {
      "constant": true,
      "inputs": [],
      "name": "getArticlesForSale",
      "outputs": [
        {
          "name": "",
          "type": "uint256[]"
        }
      ],
      "payable": false,
      "stateMutability": "view",
      "type": "function",
      "signature": "0x7f6be3da"
    }
  ],
  "bytecode": "0x6080604052336000806101000a81548173ffffffffffffffffffffffffffffffffffffffff021916908373ffffffffffffffffffffffffffffffffffffffff1602179055506000809054906101000a900473ffffffffffffffffffffffffffffffffffffffff1673ffffffffffffffffffffffffffffffffffffffff16600073ffffffffffffffffffffffffffffffffffffffff167f8be0079c531659141344cd1fd0a4f28419497f9722a3daafe3b4186f6b6457e060405160405180910390a3611d68806100cf6000396000f3fe608060405260043610610107576000357c0100000000000000000000000000000000000000000000000000000000900463ffffffff168063348799de1461010c578063429b62e51461013757806344d50993146101a057806366a93add146102345780636732e40f1461028757806370480275146102f6578063715018a61461035f578063751e9a9c146103765780637f6be3da146103df5780638da5cb5b1461044b5780638f32d59b146104a25780639a9a0775146104d15780639adeb5f114610536578063a14d90981461059f578063d260951514610608578063da02356514610771578063edcfafe6146107c4578063f2fde38b1461096d578063f461871e146109be575b600080fd5b34801561011857600080fd5b50610121610a2a565b6040518082815260200191505060405180910390f35b34801561014357600080fd5b506101866004803603602081101561015a57600080fd5b81019080803573ffffffffffffffffffffffffffffffffffffffff169060200190929190505050610a34565b604051808215151515815260200191505060405180910390f35b3480156101ac57600080fd5b506101d9600480360360208110156101c357600080fd5b8101908080359060200190929190505050610a54565b604051808581526020018473ffffffffffffffffffffffffffffffffffffffff1673ffffffffffffffffffffffffffffffffffffffff1681526020018381526020018215151515815260200194505050505060405180910390f35b34801561024057600080fd5b5061026d6004803603602081101561025757600080fd5b8101908080359060200190929190505050610ab1565b604051808215151515815260200191505060405180910390f35b34801561029357600080fd5b506102e0600480360360408110156102aa57600080fd5b81019080803573ffffffffffffffffffffffffffffffffffffffff16906020019092919080359060200190929190505050610bdb565b6040518082815260200191505060405180910390f35b34801561030257600080fd5b506103456004803603602081101561031957600080fd5b81019080803573ffffffffffffffffffffffffffffffffffffffff169060200190929190505050610c0b565b604051808215151515815260200191505060405180910390f35b34801561036b57600080fd5b50610374610d67565b005b34801561038257600080fd5b506103c56004803603602081101561039957600080fd5b81019080803573ffffffffffffffffffffffffffffffffffffffff169060200190929190505050610e39565b604051808215151515815260200191505060405180910390f35b3480156103eb57600080fd5b506103f4610f96565b6040518080602001828103825283818151815260200191508051906020019060200280838360005b8381101561043757808201518184015260208101905061041c565b505050509050019250505060405180910390f35b34801561045757600080fd5b506104606110fd565b604051808273ffffffffffffffffffffffffffffffffffffffff1673ffffffffffffffffffffffffffffffffffffffff16815260200191505060405180910390f35b3480156104ae57600080fd5b506104b7611126565b604051808215151515815260200191505060405180910390f35b3480156104dd57600080fd5b50610520600480360360208110156104f457600080fd5b81019080803573ffffffffffffffffffffffffffffffffffffffff16906020019092919050505061117d565b6040518082815260200191505060405180910390f35b34801561054257600080fd5b506105856004803603602081101561055957600080fd5b81019080803573ffffffffffffffffffffffffffffffffffffffff169060200190929190505050611195565b604051808215151515815260200191505060405180910390f35b3480156105ab57600080fd5b506105ee600480360360208110156105c257600080fd5b81019080803573ffffffffffffffffffffffffffffffffffffffff1690602001909291905050506113f6565b604051808215151515815260200191505060405180910390f35b34801561061457600080fd5b5061076f6004803603606081101561062b57600080fd5b810190808035906020019064010000000081111561064857600080fd5b82018360208201111561065a57600080fd5b8035906020019184600183028401116401000000008311171561067c57600080fd5b91908080601f016020809104026020016040519081016040528093929190818152602001838380828437600081840152601f19601f820116905080830192505050505050509192919290803590602001906401000000008111156106df57600080fd5b8201836020820111156106f157600080fd5b8035906020019184600183028401116401000000008311171561071357600080fd5b91908080601f016020809104026020016040519081016040528093929190818152602001838380828437600081840152601f19601f82011690508083019250505050505050919291929080359060200190929190505050611467565b005b34801561077d57600080fd5b506107aa6004803603602081101561079457600080fd5b8101908080359060200190929190505050611747565b604051808215151515815260200191505060405180910390f35b3480156107d057600080fd5b506107fd600480360360208110156107e757600080fd5b8101908080359060200190929190505050611916565b6040518088815260200180602001806020018781526020018673ffffffffffffffffffffffffffffffffffffffff1673ffffffffffffffffffffffffffffffffffffffff1681526020018573ffffffffffffffffffffffffffffffffffffffff1673ffffffffffffffffffffffffffffffffffffffff16815260200184600281111561088557fe5b60ff168152602001838103835289818151815260200191508051906020019080838360005b838110156108c55780820151818401526020810190506108aa565b50505050905090810190601f1680156108f25780820380516001836020036101000a031916815260200191505b50838103825288818151815260200191508051906020019080838360005b8381101561092b578082015181840152602081019050610910565b50505050905090810190601f1680156109585780820380516001836020036101000a031916815260200191505b50995050505050505050505060405180910390f35b34801561097957600080fd5b506109bc6004803603602081101561099057600080fd5b81019080803573ffffffffffffffffffffffffffffffffffffffff169060200190929190505050611ad5565b005b3480156109ca57600080fd5b506109d3611af4565b6040518080602001828103825283818151815260200191508051906020019060200280838360005b83811015610a165780820151818401526020810190506109fb565b505050509050019250505060405180910390f35b6000600254905090565b60016020528060005260406000206000915054906101000a900460ff1681565b60036020528060005260406000206000915090508060000154908060010160009054906101000a900473ffffffffffffffffffffffffffffffffffffffff16908060020154908060030160009054906101000a900460ff16905084565b6000610abc336113f6565b1515610ac757600080fd5b6005548211151515610ad857600080fd5b60006002811115610ae557fe5b6006600084815260200190815260200160002060050160149054906101000a900460ff166002811115610b1457fe5b1415610b575760026006600084815260200190815260200160002060050160146101000a81548160ff02191690836002811115610b4d57fe5b0217905550610bd2565b600280811115610b6357fe5b6006600084815260200190815260200160002060050160149054906101000a900460ff166002811115610b9257fe5b1415610bd15760006006600084815260200190815260200160002060050160146101000a81548160ff02191690836002811115610bcb57fe5b02179055505b5b60019050919050565b600760205281600052604060002081815481101515610bf657fe5b90600052602060002001600091509150505481565b6000610c15611126565b1515610c2057600080fd5b60018060008473ffffffffffffffffffffffffffffffffffffffff1673ffffffffffffffffffffffffffffffffffffffff16815260200190815260200160002060006101000a81548160ff0219169083151502179055507fc20e1fd1703f17fb02c5216184ebcc3f07f525e751b7b22f9912b32de061a4f682604051808273ffffffffffffffffffffffffffffffffffffffff1673ffffffffffffffffffffffffffffffffffffffff168152602001806020018281038252600b8152602001807f41646465642061646d696e0000000000000000000000000000000000000000008152506020019250505060405180910390a1600160008373ffffffffffffffffffffffffffffffffffffffff1673ffffffffffffffffffffffffffffffffffffffff16815260200190815260200160002060009054906101000a900460ff169050919050565b610d6f611126565b1515610d7a57600080fd5b600073ffffffffffffffffffffffffffffffffffffffff166000809054906101000a900473ffffffffffffffffffffffffffffffffffffffff1673ffffffffffffffffffffffffffffffffffffffff167f8be0079c531659141344cd1fd0a4f28419497f9722a3daafe3b4186f6b6457e060405160405180910390a360008060006101000a81548173ffffffffffffffffffffffffffffffffffffffff021916908373ffffffffffffffffffffffffffffffffffffffff160217905550565b6000610e43611126565b1515610e4e57600080fd5b6000600160008473ffffffffffffffffffffffffffffffffffffffff1673ffffffffffffffffffffffffffffffffffffffff16815260200190815260200160002060006101000a81548160ff0219169083151502179055507fc20e1fd1703f17fb02c5216184ebcc3f07f525e751b7b22f9912b32de061a4f682604051808273ffffffffffffffffffffffffffffffffffffffff1673ffffffffffffffffffffffffffffffffffffffff168152602001806020018281038252600e8152602001807f44697361626c65642061646d696e0000000000000000000000000000000000008152506020019250505060405180910390a1600160008373ffffffffffffffffffffffffffffffffffffffff1673ffffffffffffffffffffffffffffffffffffffff16815260200190815260200160002060009054906101000a900460ff169050919050565b606080600554604051908082528060200260200182016040528015610fca5781602001602082028038833980820191505090505b50905060008090506000600190505b6005548111151561106f5760006002811115610ff157fe5b6006600083815260200190815260200160002060050160149054906101000a900460ff16600281111561102057fe5b1415611062576006600082815260200190815260200160002060000154838381518110151561104b57fe5b906020019060200201818152505081806001019250505b8080600101915050610fd9565b506060816040519080825280602002602001820160405280156110a15781602001602082028038833980820191505090505b50905060008090505b828110156110f35783818151811015156110c057fe5b9060200190602002015182828151811015156110d857fe5b906020019060200201818152505080806001019150506110aa565b5080935050505090565b60008060009054906101000a900473ffffffffffffffffffffffffffffffffffffffff16905090565b60008060009054906101000a900473ffffffffffffffffffffffffffffffffffffffff1673ffffffffffffffffffffffffffffffffffffffff163373ffffffffffffffffffffffffffffffffffffffff1614905090565b60046020528060005260406000206000915090505481565b6000600160003373ffffffffffffffffffffffffffffffffffffffff1673ffffffffffffffffffffffffffffffffffffffff16815260200190815260200160002060009054906101000a900460ff1615156111ef57600080fd5b6111f8826113f6565b15151561120457600080fd5b60026000815480929190600101919050555060806040519081016040528060025481526020018373ffffffffffffffffffffffffffffffffffffffff16815260200160008152602001600115158152506003600060025481526020019081526020016000206000820151816000015560208201518160010160006101000a81548173ffffffffffffffffffffffffffffffffffffffff021916908373ffffffffffffffffffffffffffffffffffffffff1602179055506040820151816002015560608201518160030160006101000a81548160ff021916908315150217905550905050600254600460008473ffffffffffffffffffffffffffffffffffffffff1673ffffffffffffffffffffffffffffffffffffffff168152602001908152602001600020819055507fa1ed230c349ed412e91a9b488b37074c9efc888c447ff9fa1619611def35e98282604051808273ffffffffffffffffffffffffffffffffffffffff1673ffffffffffffffffffffffffffffffffffffffff16815260200180602001828103825260158152602001807f4164646564206e65772073746f72654f776e65722e00000000000000000000008152506020019250505060405180910390a160036000600254815260200190815260200160002060030160009054906101000a900460ff169050919050565b600080600460008473ffffffffffffffffffffffffffffffffffffffff1673ffffffffffffffffffffffffffffffffffffffff1681526020019081526020016000205490506003600082815260200190815260200160002060030160009054906101000a900460ff16915050919050565b611470336113f6565b151561147b57600080fd5b60056000815480929190600101919050555060e06040519081016040528060055481526020018481526020018381526020018281526020013373ffffffffffffffffffffffffffffffffffffffff168152602001600073ffffffffffffffffffffffffffffffffffffffff168152602001600060028111156114f957fe5b815250600660006005548152602001908152602001600020600082015181600001556020820151816001019080519060200190611537929190611c97565b506040820151816002019080519060200190611554929190611c97565b506060820151816003015560808201518160040160006101000a81548173ffffffffffffffffffffffffffffffffffffffff021916908373ffffffffffffffffffffffffffffffffffffffff16021790555060a08201518160050160006101000a81548173ffffffffffffffffffffffffffffffffffffffff021916908373ffffffffffffffffffffffffffffffffffffffff16021790555060c08201518160050160146101000a81548160ff0219169083600281111561161157fe5b0217905550905050600760003373ffffffffffffffffffffffffffffffffffffffff1673ffffffffffffffffffffffffffffffffffffffff16815260200190815260200160002060055490806001815401808255809150509060018203906000526020600020016000909192909190915055503373ffffffffffffffffffffffffffffffffffffffff166005547fe2ebb0c522a8b90a93f45a5dfd3c0e0516b81519fdf199efe51c474642fe8cec85846040518080602001838152602001828103825284818151815260200191508051906020019080838360005b838110156117075780820151818401526020810190506116ec565b50505050905090810190601f1680156117345780820380516001836020036101000a031916815260200191505b50935050505060405180910390a3505050565b6000600160003373ffffffffffffffffffffffffffffffffffffffff1673ffffffffffffffffffffffffffffffffffffffff16815260200190815260200160002060009054906101000a900460ff1615156117a157600080fd5b6003600083815260200190815260200160002060030160009054906101000a900460ff16156003600084815260200190815260200160002060030160006101000a81548160ff0219169083151502179055507fa1ed230c349ed412e91a9b488b37074c9efc888c447ff9fa1619611def35e9826003600084815260200190815260200160002060010160009054906101000a900473ffffffffffffffffffffffffffffffffffffffff16604051808273ffffffffffffffffffffffffffffffffffffffff1673ffffffffffffffffffffffffffffffffffffffff16815260200180602001828103825260238152602001807f4368616e67656420656e726f6c6c6564207374617475732073746f72654f776e81526020017f65722e00000000000000000000000000000000000000000000000000000000008152506040019250505060405180910390a16003600083815260200190815260200160002060030160009054906101000a900460ff169050919050565b6006602052806000526040600020600091509050806000015490806001018054600181600116156101000203166002900480601f0160208091040260200160405190810160405280929190818152602001828054600181600116156101000203166002900480156119c85780601f1061199d576101008083540402835291602001916119c8565b820191906000526020600020905b8154815290600101906020018083116119ab57829003601f168201915b505050505090806002018054600181600116156101000203166002900480601f016020809104026020016040519081016040528092919081815260200182805460018160011615610100020316600290048015611a665780601f10611a3b57610100808354040283529160200191611a66565b820191906000526020600020905b815481529060010190602001808311611a4957829003601f168201915b5050505050908060030154908060040160009054906101000a900473ffffffffffffffffffffffffffffffffffffffff16908060050160009054906101000a900473ffffffffffffffffffffffffffffffffffffffff16908060050160149054906101000a900460ff16905087565b611add611126565b1515611ae857600080fd5b611af181611b9d565b50565b6060611aff336113f6565b1515611b0a57600080fd5b600760003373ffffffffffffffffffffffffffffffffffffffff1673ffffffffffffffffffffffffffffffffffffffff168152602001908152602001600020805480602002602001604051908101604052809291908181526020018280548015611b9357602002820191906000526020600020905b815481526020019060010190808311611b7f575b5050505050905090565b600073ffffffffffffffffffffffffffffffffffffffff168173ffffffffffffffffffffffffffffffffffffffff1614151515611bd957600080fd5b8073ffffffffffffffffffffffffffffffffffffffff166000809054906101000a900473ffffffffffffffffffffffffffffffffffffffff1673ffffffffffffffffffffffffffffffffffffffff167f8be0079c531659141344cd1fd0a4f28419497f9722a3daafe3b4186f6b6457e060405160405180910390a3806000806101000a81548173ffffffffffffffffffffffffffffffffffffffff021916908373ffffffffffffffffffffffffffffffffffffffff16021790555050565b828054600181600116156101000203166002900490600052602060002090601f016020900481019282601f10611cd857805160ff1916838001178555611d06565b82800160010185558215611d06579182015b82811115611d05578251825591602001919060010190611cea565b5b509050611d139190611d17565b5090565b611d3991905b80821115611d35576000816000905550600101611d1d565b5090565b9056fea165627a7a723058202bf9c0d3b2690a230dbd6b6c59601ab69238eb06a42b951866075371cf9160410029",
  "source": "pragma solidity 0.5.0;\n\nimport \"client/node_modules/openzeppelin-solidity/contracts/ownership/Ownable.sol\";\n\ncontract Marketplace is Ownable{\n\n    //\n    // State variables\n    //\n    mapping (address => bool) public admins;\n\n    uint256 storeOwnersCounter;\n    struct StoreOwner {\n        uint id;\n        address storeOwnerAddress;\n        uint256 balance;\n        bool enrolled;\n    }\n    mapping (uint => StoreOwner) public storeOwners;\n    mapping (address => uint) public storeOwnersIds;\n\n    uint256 articleCounter;\n    enum ArticleState { ForSale, Sold, NoSale }\n    struct Article {\n        uint id;\n        string name;\n        string description;\n        uint256 price;\n        address seller;\n        address buyer;\n        ArticleState articleState;\n    }\n    mapping (uint => Article) public articles;\n    mapping (address => uint[]) public articleIds;\n\n    //\n    // Modifiers\n    // \n    modifier onlyAdmin(){\n        require(admins[msg.sender]);\n        _;\n    }\n    modifier onlyStoreOwner(){\n        require(checkStoreOwner(msg.sender));\n        _;\n    }\n\n    //\n    // Events\n    //\n    event EditAdmin(address _admin, string _action);\n    event EditStoreOwner(address _storeOwner, string _action);\n    event LogSellArticle(uint indexed _id, address indexed _seller, string _name, uint _price);\n    event LogBuyArticle(uint indexed _id, address indexed _buyer, string _name, uint _price);\n\n    //\n    // Functions\n    //\n\n    /////////////////////////////////////////////////////\n    // Owner only functions                            \n    /////////////////////////////////////////////////////\n\n    /** @dev Add an administrator address.\n      * @param newAdmin Address of new admin.\n      * @return True if address is an admin.\n      */\n    function addAdmin(address newAdmin) public onlyOwner returns(bool) {\n        admins[newAdmin] = true;\n        emit EditAdmin(newAdmin, \"Added admin\");\n        return admins[newAdmin];\n    }\n\n    /** @dev Disable an administrator address\n      * @param adminAddress Address of admin\n      * @return False if address is no longer admin\n      */\n    function disableAdmin(address adminAddress) public onlyOwner returns(bool) {\n        admins[adminAddress] = false;\n        emit EditAdmin(adminAddress, \"Disabled admin\");\n        return admins[adminAddress];\n    }\n\n    /////////////////////////////////////////////////////\n    // Admin only functions\n    /////////////////////////////////////////////////////\n\n    /** @dev Add an storeOwner address.\n      * @param newStoreOwner Address of new storeOwner.\n      * @return True if address is a storeOwner.\n      */\n    function addStoreOwner(address newStoreOwner) public onlyAdmin returns(bool){\n        require(!checkStoreOwner(newStoreOwner));\n        // if(checkStoreOwner(newStoreOwner)){revert();} \n        storeOwnersCounter++;\n        storeOwners[storeOwnersCounter] = StoreOwner(storeOwnersCounter,newStoreOwner, 0, true);\n        storeOwnersIds[newStoreOwner] = storeOwnersCounter;\n        emit EditStoreOwner(newStoreOwner, \"Added new storeOwner.\");\n        return storeOwners[storeOwnersCounter].enrolled;\n    }\n\n    /** @dev change enrolled status of a storeOwner address\n      * @param id Id of storeOwner\n      * @return False if address is no longer storeOwner\n      */\n    function changeStatusEnrolledStoreOwner(uint id) public onlyAdmin returns(bool) {\n        storeOwners[id].enrolled = !storeOwners[id].enrolled;\n        emit EditStoreOwner(storeOwners[id].storeOwnerAddress, \"Changed enrolled status storeOwner.\");\n        return storeOwners[id].enrolled;\n    }  \n\n    /** @dev check if address is storeOwner\n      * @param storeOwnerAddress Address of storeOwner\n      * @return True if address is a storeOwner\n      */\n    function checkStoreOwner(address storeOwnerAddress) public view returns(bool) {\n        uint _id = storeOwnersIds[storeOwnerAddress];\n        return storeOwners[_id].enrolled;\n    }\n\n    /** @dev Get number of storeOwners\n      * @return storeOwnersCounter;\n      */\n    function getNumberOfStoreOwners() public view returns(uint){\n        return storeOwnersCounter;\n    }\n\n    /////////////////////////////////////////////////////\n    // StoreOwner only functions\n    ///////////////////////////////////////////////////// \n\n    /** @dev Add an article for sale\n      * @param name Name of article\n      * @param description Description of article\n      * @param price Price of article\n      */   \n    function sellArticle(string memory name, string memory description, uint256 price) public onlyStoreOwner {\n        //check inputs!!\n        articleCounter++;\n\n        articles[articleCounter] = Article (\n            articleCounter,\n            name,\n            description,\n            price,\n            msg.sender,\n            address(0),\n            ArticleState.ForSale\n        );\n\n        articleIds[msg.sender].push(articleCounter);\n        \n        emit LogSellArticle(articleCounter, msg.sender, name, price);\n    }\n\n    /** @dev get articleIds from articles where seller is storeOwner\n      * @return uint[]*/\n    function getArticleIds() public view onlyStoreOwner returns(uint[] memory){\n        return articleIds[msg.sender]; \n    }\n\n    /** @dev change articleState from article\n      * @param articleId id of article\n      * @return true if succeeded\n      */\n    function changeArticleState(uint256 articleId) public onlyStoreOwner returns(bool){\n        require(articleId <= articleCounter);\n        if(articles[articleId].articleState == ArticleState.ForSale){\n            articles[articleId].articleState = ArticleState.NoSale;\n        } else if(articles[articleId].articleState == ArticleState.NoSale){\n            articles[articleId].articleState = ArticleState.ForSale;\n        }\n        return true;\n    }\n\n    /////////////////////////////////////////////////////\n    // Client only functions\n    ///////////////////////////////////////////////////// \n    /** @dev get articles for sale\n      */\n    function getArticlesForSale() public view returns(uint[] memory){\n        uint[] memory articleIdsForSale = new uint[](articleCounter);\n\n        uint numberOfArticlesForSale = 0;\n        // iterate over articles\n        for(uint i = 1; i <= articleCounter;  i++) {\n          // keep the ID if the article is still for sale\n            if(articles[i].articleState == ArticleState.ForSale) {\n                articleIdsForSale[numberOfArticlesForSale] = articles[i].id;\n                numberOfArticlesForSale++;\n            }\n        }\n\n        // copy the articleIds array into a smaller forSale array\n        uint[] memory forSale = new uint[](numberOfArticlesForSale);\n        for(uint j = 0; j < numberOfArticlesForSale; j++) {\n            forSale[j] = articleIdsForSale[j];\n        }\n        return forSale;\n    }\n}",
  "sourcePath": "/home/jm/Consensys/marketplace-dapp/contracts/Marketplace.sol",
  "compiler": {
    "name": "solc",
    "version": "0.5.0+commit.1d4f565a.Emscripten.clang"
  },
  "schemaVersion": "3.0.0",
  "updatedAt": "2019-01-18T23:06:19.512Z",
  "devdoc": {
    "methods": {
      "addAdmin(address)": {
        "details": "Add an administrator address.",
        "params": {
          "newAdmin": "Address of new admin."
        },
        "return": "True if address is an admin."
      },
      "addStoreOwner(address)": {
        "details": "Add an storeOwner address.",
        "params": {
          "newStoreOwner": "Address of new storeOwner."
        },
        "return": "True if address is a storeOwner."
      },
      "changeArticleState(uint256)": {
        "details": "change articleState from article",
        "params": {
          "articleId": "id of article"
        },
        "return": "true if succeeded"
      },
      "changeStatusEnrolledStoreOwner(uint256)": {
        "details": "change enrolled status of a storeOwner address",
        "params": {
          "id": "Id of storeOwner"
        },
        "return": "False if address is no longer storeOwner"
      },
      "checkStoreOwner(address)": {
        "details": "check if address is storeOwner",
        "params": {
          "storeOwnerAddress": "Address of storeOwner"
        },
        "return": "True if address is a storeOwner"
      },
      "disableAdmin(address)": {
        "details": "Disable an administrator address",
        "params": {
          "adminAddress": "Address of admin"
        },
        "return": "False if address is no longer admin"
      },
      "getArticleIds()": {
        "details": "get articleIds from articles where seller is storeOwner",
        "return": "uint[]"
      },
      "getArticlesForSale()": {
        "details": "get articles for sale"
      },
      "getNumberOfStoreOwners()": {
        "details": "Get number of storeOwners",
        "return": "storeOwnersCounter;"
      },
      "isOwner()": {
        "return": "true if `msg.sender` is the owner of the contract."
      },
      "owner()": {
        "return": "the address of the owner."
      },
      "renounceOwnership()": {
        "details": "Allows the current owner to relinquish control of the contract."
      },
      "sellArticle(string,string,uint256)": {
        "details": "Add an article for sale",
        "params": {
          "description": "Description of article",
          "name": "Name of article",
          "price": "Price of article"
        }
      },
      "transferOwnership(address)": {
        "details": "Allows the current owner to transfer control of the contract to a newOwner.",
        "params": {
          "newOwner": "The address to transfer ownership to."
        }
      }
    }
  },
  "userdoc": {
    "methods": {
      "renounceOwnership()": {
        "notice": "Renouncing to ownership will leave the contract without an owner. It will not be possible to call the functions with the `onlyOwner` modifier anymore."
      }
    }
  }
}