{
  "contractName": "Marketplace",
  "abi": [
    {
      "constant": false,
      "inputs": [],
      "name": "toggle_active",
      "outputs": [
        {
          "name": "",
          "type": "bool"
        }
      ],
      "payable": false,
      "stateMutability": "nonpayable",
      "type": "function",
      "signature": "0x3afd1b67"
    },
    {
      "constant": true,
      "inputs": [
        {
          "name": "",
          "type": "address"
        }
      ],
      "name": "admins",
      "outputs": [
        {
          "name": "",
          "type": "bool"
        }
      ],
      "payable": false,
      "stateMutability": "view",
      "type": "function",
      "signature": "0x429b62e5"
    },
    {
      "constant": true,
      "inputs": [
        {
          "name": "",
          "type": "uint256"
        }
      ],
      "name": "storeOwners",
      "outputs": [
        {
          "name": "id",
          "type": "uint256"
        },
        {
          "name": "storeOwnerAddress",
          "type": "address"
        },
        {
          "name": "balance",
          "type": "uint256"
        },
        {
          "name": "enrolled",
          "type": "bool"
        }
      ],
      "payable": false,
      "stateMutability": "view",
      "type": "function",
      "signature": "0x44d50993"
    },
    {
      "constant": true,
      "inputs": [
        {
          "name": "",
          "type": "address"
        },
        {
          "name": "",
          "type": "uint256"
        }
      ],
      "name": "articleIds",
      "outputs": [
        {
          "name": "",
          "type": "uint256"
        }
      ],
      "payable": false,
      "stateMutability": "view",
      "type": "function",
      "signature": "0x6732e40f"
    },
    {
      "constant": false,
      "inputs": [],
      "name": "renounceOwnership",
      "outputs": [],
      "payable": false,
      "stateMutability": "nonpayable",
      "type": "function",
      "signature": "0x715018a6"
    },
    {
      "constant": true,
      "inputs": [],
      "name": "owner",
      "outputs": [
        {
          "name": "",
          "type": "address"
        }
      ],
      "payable": false,
      "stateMutability": "view",
      "type": "function",
      "signature": "0x8da5cb5b"
    },
    {
      "constant": true,
      "inputs": [],
      "name": "isOwner",
      "outputs": [
        {
          "name": "",
          "type": "bool"
        }
      ],
      "payable": false,
      "stateMutability": "view",
      "type": "function",
      "signature": "0x8f32d59b"
    },
    {
      "constant": true,
      "inputs": [
        {
          "name": "",
          "type": "address"
        }
      ],
      "name": "storeOwnersIds",
      "outputs": [
        {
          "name": "",
          "type": "uint256"
        }
      ],
      "payable": false,
      "stateMutability": "view",
      "type": "function",
      "signature": "0x9a9a0775"
    },
    {
      "constant": true,
      "inputs": [
        {
          "name": "",
          "type": "uint256"
        }
      ],
      "name": "articles",
      "outputs": [
        {
          "name": "id",
          "type": "uint256"
        },
        {
          "name": "name",
          "type": "string"
        },
        {
          "name": "description",
          "type": "string"
        },
        {
          "name": "price",
          "type": "uint256"
        },
        {
          "name": "seller",
          "type": "address"
        },
        {
          "name": "buyer",
          "type": "address"
        },
        {
          "name": "articleState",
          "type": "uint8"
        }
      ],
      "payable": false,
      "stateMutability": "view",
      "type": "function",
      "signature": "0xedcfafe6"
    },
    {
      "constant": false,
      "inputs": [
        {
          "name": "newOwner",
          "type": "address"
        }
      ],
      "name": "transferOwnership",
      "outputs": [],
      "payable": false,
      "stateMutability": "nonpayable",
      "type": "function",
      "signature": "0xf2fde38b"
    },
    {
      "anonymous": false,
      "inputs": [
        {
          "indexed": false,
          "name": "_admin",
          "type": "address"
        },
        {
          "indexed": false,
          "name": "_action",
          "type": "string"
        }
      ],
      "name": "EditAdmin",
      "type": "event",
      "signature": "0xc20e1fd1703f17fb02c5216184ebcc3f07f525e751b7b22f9912b32de061a4f6"
    },
    {
      "anonymous": false,
      "inputs": [
        {
          "indexed": false,
          "name": "_storeOwner",
          "type": "address"
        },
        {
          "indexed": false,
          "name": "_action",
          "type": "string"
        }
      ],
      "name": "EditStoreOwner",
      "type": "event",
      "signature": "0xa1ed230c349ed412e91a9b488b37074c9efc888c447ff9fa1619611def35e982"
    },
    {
      "anonymous": false,
      "inputs": [
        {
          "indexed": true,
          "name": "_id",
          "type": "uint256"
        },
        {
          "indexed": true,
          "name": "_seller",
          "type": "address"
        },
        {
          "indexed": false,
          "name": "_name",
          "type": "string"
        },
        {
          "indexed": false,
          "name": "_price",
          "type": "uint256"
        }
      ],
      "name": "LogSellArticle",
      "type": "event",
      "signature": "0xe2ebb0c522a8b90a93f45a5dfd3c0e0516b81519fdf199efe51c474642fe8cec"
    },
    {
      "anonymous": false,
      "inputs": [
        {
          "indexed": true,
          "name": "_id",
          "type": "uint256"
        },
        {
          "indexed": true,
          "name": "_buyer",
          "type": "address"
        },
        {
          "indexed": false,
          "name": "_name",
          "type": "string"
        },
        {
          "indexed": false,
          "name": "_price",
          "type": "uint256"
        }
      ],
      "name": "LogBuyArticle",
      "type": "event",
      "signature": "0x5532c8570cec96b5eb7f093229e4bf02b7fc6b17b23c3058954740f9ba28be07"
    },
    {
      "anonymous": false,
      "inputs": [
        {
          "indexed": true,
          "name": "previousOwner",
          "type": "address"
        },
        {
          "indexed": true,
          "name": "newOwner",
          "type": "address"
        }
      ],
      "name": "OwnershipTransferred",
      "type": "event",
      "signature": "0x8be0079c531659141344cd1fd0a4f28419497f9722a3daafe3b4186f6b6457e0"
    },
    {
      "constant": false,
      "inputs": [
        {
          "name": "newAdmin",
          "type": "address"
        }
      ],
      "name": "addAdmin",
      "outputs": [
        {
          "name": "",
          "type": "bool"
        }
      ],
      "payable": false,
      "stateMutability": "nonpayable",
      "type": "function",
      "signature": "0x70480275"
    },
    {
      "constant": false,
      "inputs": [
        {
          "name": "adminAddress",
          "type": "address"
        }
      ],
      "name": "disableAdmin",
      "outputs": [
        {
          "name": "",
          "type": "bool"
        }
      ],
      "payable": false,
      "stateMutability": "nonpayable",
      "type": "function",
      "signature": "0x751e9a9c"
    },
    {
      "constant": false,
      "inputs": [
        {
          "name": "newStoreOwner",
          "type": "address"
        }
      ],
      "name": "addStoreOwner",
      "outputs": [
        {
          "name": "",
          "type": "bool"
        }
      ],
      "payable": false,
      "stateMutability": "nonpayable",
      "type": "function",
      "signature": "0x9adeb5f1"
    },
    {
      "constant": false,
      "inputs": [
        {
          "name": "id",
          "type": "uint256"
        }
      ],
      "name": "changeStatusEnrolledStoreOwner",
      "outputs": [
        {
          "name": "",
          "type": "bool"
        }
      ],
      "payable": false,
      "stateMutability": "nonpayable",
      "type": "function",
      "signature": "0xda023565"
    },
    {
      "constant": true,
      "inputs": [
        {
          "name": "storeOwnerAddress",
          "type": "address"
        }
      ],
      "name": "checkStoreOwner",
      "outputs": [
        {
          "name": "",
          "type": "bool"
        }
      ],
      "payable": false,
      "stateMutability": "view",
      "type": "function",
      "signature": "0xa14d9098"
    },
    {
      "constant": true,
      "inputs": [],
      "name": "getNumberOfStoreOwners",
      "outputs": [
        {
          "name": "",
          "type": "uint256"
        }
      ],
      "payable": false,
      "stateMutability": "view",
      "type": "function",
      "signature": "0x348799de"
    },
    {
      "constant": false,
      "inputs": [
        {
          "name": "name",
          "type": "string"
        },
        {
          "name": "description",
          "type": "string"
        },
        {
          "name": "price",
          "type": "uint256"
        }
      ],
      "name": "sellArticle",
      "outputs": [],
      "payable": false,
      "stateMutability": "nonpayable",
      "type": "function",
      "signature": "0xd2609515"
    },
    {
      "constant": true,
      "inputs": [],
      "name": "getArticleIds",
      "outputs": [
        {
          "name": "",
          "type": "uint256[]"
        }
      ],
      "payable": false,
      "stateMutability": "view",
      "type": "function",
      "signature": "0xf461871e"
    },
    {
      "constant": false,
      "inputs": [
        {
          "name": "articleId",
          "type": "uint256"
        }
      ],
      "name": "changeArticleState",
      "outputs": [
        {
          "name": "",
          "type": "bool"
        }
      ],
      "payable": false,
      "stateMutability": "nonpayable",
      "type": "function",
      "signature": "0x66a93add"
    },
    {
      "constant": false,
      "inputs": [
        {
          "name": "storeOwnerAddress",
          "type": "address"
        }
      ],
      "name": "withdraw",
      "outputs": [
        {
          "name": "",
          "type": "bool"
        }
      ],
      "payable": false,
      "stateMutability": "nonpayable",
      "type": "function",
      "signature": "0x51cff8d9"
    },
    {
      "constant": true,
      "inputs": [],
      "name": "getArticlesForSale",
      "outputs": [
        {
          "name": "",
          "type": "uint256[]"
        }
      ],
      "payable": false,
      "stateMutability": "view",
      "type": "function",
      "signature": "0x7f6be3da"
    },
    {
      "constant": false,
      "inputs": [
        {
          "name": "_id",
          "type": "uint256"
        }
      ],
      "name": "buyArticle",
      "outputs": [],
      "payable": true,
      "stateMutability": "payable",
      "type": "function",
      "signature": "0x1cc4baa8"
    }
  ],
  "bytecode": "0x608060405260008060146101000a81548160ff021916908315150217905550336000806101000a81548173ffffffffffffffffffffffffffffffffffffffff021916908373ffffffffffffffffffffffffffffffffffffffff1602179055506000809054906101000a900473ffffffffffffffffffffffffffffffffffffffff1673ffffffffffffffffffffffffffffffffffffffff16600073ffffffffffffffffffffffffffffffffffffffff167f8be0079c531659141344cd1fd0a4f28419497f9722a3daafe3b4186f6b6457e060405160405180910390a36122c1806100e96000396000f3fe608060405260043610610128576000357c0100000000000000000000000000000000000000000000000000000000900463ffffffff1680631cc4baa81461012d578063348799de1461015b5780633afd1b6714610186578063429b62e5146101b557806344d509931461021e57806351cff8d9146102b257806366a93add1461031b5780636732e40f1461036e57806370480275146103dd578063715018a614610446578063751e9a9c1461045d5780637f6be3da146104c65780638da5cb5b146105325780638f32d59b146105895780639a9a0775146105b85780639adeb5f11461061d578063a14d909814610686578063d2609515146106ef578063da02356514610858578063edcfafe6146108ab578063f2fde38b14610a54578063f461871e14610aa5575b600080fd5b6101596004803603602081101561014357600080fd5b8101908080359060200190929190505050610b11565b005b34801561016757600080fd5b50610170610d51565b6040518082815260200191505060405180910390f35b34801561019257600080fd5b5061019b610d5b565b604051808215151515815260200191505060405180910390f35b3480156101c157600080fd5b50610204600480360360208110156101d857600080fd5b81019080803573ffffffffffffffffffffffffffffffffffffffff169060200190929190505050610daf565b604051808215151515815260200191505060405180910390f35b34801561022a57600080fd5b506102576004803603602081101561024157600080fd5b8101908080359060200190929190505050610dcf565b604051808581526020018473ffffffffffffffffffffffffffffffffffffffff1673ffffffffffffffffffffffffffffffffffffffff1681526020018381526020018215151515815260200194505050505060405180910390f35b3480156102be57600080fd5b50610301600480360360208110156102d557600080fd5b81019080803573ffffffffffffffffffffffffffffffffffffffff169060200190929190505050610e2c565b604051808215151515815260200191505060405180910390f35b34801561032757600080fd5b506103546004803603602081101561033e57600080fd5b8101908080359060200190929190505050610f7d565b604051808215151515815260200191505060405180910390f35b34801561037a57600080fd5b506103c76004803603604081101561039157600080fd5b81019080803573ffffffffffffffffffffffffffffffffffffffff169060200190929190803590602001909291905050506110c3565b6040518082815260200191505060405180910390f35b3480156103e957600080fd5b5061042c6004803603602081101561040057600080fd5b81019080803573ffffffffffffffffffffffffffffffffffffffff1690602001909291905050506110f3565b604051808215151515815260200191505060405180910390f35b34801561045257600080fd5b5061045b61124f565b005b34801561046957600080fd5b506104ac6004803603602081101561048057600080fd5b81019080803573ffffffffffffffffffffffffffffffffffffffff169060200190929190505050611321565b604051808215151515815260200191505060405180910390f35b3480156104d257600080fd5b506104db61147e565b6040518080602001828103825283818151815260200191508051906020019060200280838360005b8381101561051e578082015181840152602081019050610503565b505050509050019250505060405180910390f35b34801561053e57600080fd5b506105476115e5565b604051808273ffffffffffffffffffffffffffffffffffffffff1673ffffffffffffffffffffffffffffffffffffffff16815260200191505060405180910390f35b34801561059557600080fd5b5061059e61160e565b604051808215151515815260200191505060405180910390f35b3480156105c457600080fd5b50610607600480360360208110156105db57600080fd5b81019080803573ffffffffffffffffffffffffffffffffffffffff169060200190929190505050611665565b6040518082815260200191505060405180910390f35b34801561062957600080fd5b5061066c6004803603602081101561064057600080fd5b81019080803573ffffffffffffffffffffffffffffffffffffffff16906020019092919050505061167d565b604051808215151515815260200191505060405180910390f35b34801561069257600080fd5b506106d5600480360360208110156106a957600080fd5b81019080803573ffffffffffffffffffffffffffffffffffffffff1690602001909291905050506118fa565b604051808215151515815260200191505060405180910390f35b3480156106fb57600080fd5b506108566004803603606081101561071257600080fd5b810190808035906020019064010000000081111561072f57600080fd5b82018360208201111561074157600080fd5b8035906020019184600183028401116401000000008311171561076357600080fd5b91908080601f016020809104026020016040519081016040528093929190818152602001838380828437600081840152601f19601f820116905080830192505050505050509192919290803590602001906401000000008111156107c657600080fd5b8201836020820111156107d857600080fd5b803590602001918460018302840111640100000000831117156107fa57600080fd5b91908080601f016020809104026020016040519081016040528093929190818152602001838380828437600081840152601f19601f8201169050808301925050505050505091929192908035906020019092919050505061196b565b005b34801561086457600080fd5b506108916004803603602081101561087b57600080fd5b8101908080359060200190929190505050611c67565b604051808215151515815260200191505060405180910390f35b3480156108b757600080fd5b506108e4600480360360208110156108ce57600080fd5b8101908080359060200190929190505050611e6f565b6040518088815260200180602001806020018781526020018673ffffffffffffffffffffffffffffffffffffffff1673ffffffffffffffffffffffffffffffffffffffff1681526020018573ffffffffffffffffffffffffffffffffffffffff1673ffffffffffffffffffffffffffffffffffffffff16815260200184600281111561096c57fe5b60ff168152602001838103835289818151815260200191508051906020019080838360005b838110156109ac578082015181840152602081019050610991565b50505050905090810190601f1680156109d95780820380516001836020036101000a031916815260200191505b50838103825288818151815260200191508051906020019080838360005b83811015610a125780820151818401526020810190506109f7565b50505050905090810190601f168015610a3f5780820380516001836020036101000a031916815260200191505b50995050505050505050505060405180910390f35b348015610a6057600080fd5b50610aa360048036036020811015610a7757600080fd5b81019080803573ffffffffffffffffffffffffffffffffffffffff16906020019092919050505061202e565b005b348015610ab157600080fd5b50610aba61204d565b6040518080602001828103825283818151815260200191508051906020019060200280838360005b83811015610afd578082015181840152602081019050610ae2565b505050509050019250505060405180910390f35b6006600082815260200190815260200160002060030154803410151515610b3757600080fd5b600060149054906101000a900460ff16151515610b5357600080fd5b6000600554111515610b6457600080fd5b600082118015610b7657506005548211155b1515610b8157600080fd5b6000600660008481526020019081526020016000209050600073ffffffffffffffffffffffffffffffffffffffff168160050160009054906101000a900473ffffffffffffffffffffffffffffffffffffffff1673ffffffffffffffffffffffffffffffffffffffff16141515610bf757600080fd5b8060040160009054906101000a900473ffffffffffffffffffffffffffffffffffffffff1673ffffffffffffffffffffffffffffffffffffffff163373ffffffffffffffffffffffffffffffffffffffff1614151515610c5657600080fd5b338160050160006101000a81548173ffffffffffffffffffffffffffffffffffffffff021916908373ffffffffffffffffffffffffffffffffffffffff16021790555060018160050160146101000a81548160ff02191690836002811115610cba57fe5b02179055506000600460008360040160009054906101000a900473ffffffffffffffffffffffffffffffffffffffff1673ffffffffffffffffffffffffffffffffffffffff1673ffffffffffffffffffffffffffffffffffffffff16815260200190815260200160002054905034600360008381526020019081526020016000206002016000828254019250508190555050505050565b6000600254905090565b6000610d6561160e565b1515610d7057600080fd5b600060149054906101000a900460ff1615600060146101000a81548160ff021916908315150217905550600060149054906101000a900460ff16905090565b60016020528060005260406000206000915054906101000a900460ff1681565b60036020528060005260406000206000915090508060000154908060010160009054906101000a900473ffffffffffffffffffffffffffffffffffffffff16908060020154908060030160009054906101000a900460ff16905084565b6000610e37336118fa565b1515610e4257600080fd5b600060149054906101000a900460ff16151515610e5e57600080fd5b3373ffffffffffffffffffffffffffffffffffffffff168273ffffffffffffffffffffffffffffffffffffffff16141515610e9857600080fd5b6000600460008473ffffffffffffffffffffffffffffffffffffffff1673ffffffffffffffffffffffffffffffffffffffff16815260200190815260200160002054905060006003600083815260200190815260200160002060020154905060008114151515610f0757600080fd5b8060036000848152602001908152602001600020600201600082825403925050819055503373ffffffffffffffffffffffffffffffffffffffff166108fc829081150290604051600060405180830381858888f19350505050158015610f71573d6000803e3d6000fd5b50600192505050919050565b6000610f88336118fa565b1515610f9357600080fd5b600060149054906101000a900460ff16151515610faf57600080fd5b6005548211151515610fc057600080fd5b60006002811115610fcd57fe5b6006600084815260200190815260200160002060050160149054906101000a900460ff166002811115610ffc57fe5b141561103f5760026006600084815260200190815260200160002060050160146101000a81548160ff0219169083600281111561103557fe5b02179055506110ba565b60028081111561104b57fe5b6006600084815260200190815260200160002060050160149054906101000a900460ff16600281111561107a57fe5b14156110b95760006006600084815260200190815260200160002060050160146101000a81548160ff021916908360028111156110b357fe5b02179055505b5b60019050919050565b6007602052816000526040600020818154811015156110de57fe5b90600052602060002001600091509150505481565b60006110fd61160e565b151561110857600080fd5b60018060008473ffffffffffffffffffffffffffffffffffffffff1673ffffffffffffffffffffffffffffffffffffffff16815260200190815260200160002060006101000a81548160ff0219169083151502179055507fc20e1fd1703f17fb02c5216184ebcc3f07f525e751b7b22f9912b32de061a4f682604051808273ffffffffffffffffffffffffffffffffffffffff1673ffffffffffffffffffffffffffffffffffffffff168152602001806020018281038252600b8152602001807f41646465642061646d696e0000000000000000000000000000000000000000008152506020019250505060405180910390a1600160008373ffffffffffffffffffffffffffffffffffffffff1673ffffffffffffffffffffffffffffffffffffffff16815260200190815260200160002060009054906101000a900460ff169050919050565b61125761160e565b151561126257600080fd5b600073ffffffffffffffffffffffffffffffffffffffff166000809054906101000a900473ffffffffffffffffffffffffffffffffffffffff1673ffffffffffffffffffffffffffffffffffffffff167f8be0079c531659141344cd1fd0a4f28419497f9722a3daafe3b4186f6b6457e060405160405180910390a360008060006101000a81548173ffffffffffffffffffffffffffffffffffffffff021916908373ffffffffffffffffffffffffffffffffffffffff160217905550565b600061132b61160e565b151561133657600080fd5b6000600160008473ffffffffffffffffffffffffffffffffffffffff1673ffffffffffffffffffffffffffffffffffffffff16815260200190815260200160002060006101000a81548160ff0219169083151502179055507fc20e1fd1703f17fb02c5216184ebcc3f07f525e751b7b22f9912b32de061a4f682604051808273ffffffffffffffffffffffffffffffffffffffff1673ffffffffffffffffffffffffffffffffffffffff168152602001806020018281038252600e8152602001807f44697361626c65642061646d696e0000000000000000000000000000000000008152506020019250505060405180910390a1600160008373ffffffffffffffffffffffffffffffffffffffff1673ffffffffffffffffffffffffffffffffffffffff16815260200190815260200160002060009054906101000a900460ff169050919050565b6060806005546040519080825280602002602001820160405280156114b25781602001602082028038833980820191505090505b50905060008090506000600190505b6005548111151561155757600060028111156114d957fe5b6006600083815260200190815260200160002060050160149054906101000a900460ff16600281111561150857fe5b141561154a576006600082815260200190815260200160002060000154838381518110151561153357fe5b906020019060200201818152505081806001019250505b80806001019150506114c1565b506060816040519080825280602002602001820160405280156115895781602001602082028038833980820191505090505b50905060008090505b828110156115db5783818151811015156115a857fe5b9060200190602002015182828151811015156115c057fe5b90602001906020020181815250508080600101915050611592565b5080935050505090565b60008060009054906101000a900473ffffffffffffffffffffffffffffffffffffffff16905090565b60008060009054906101000a900473ffffffffffffffffffffffffffffffffffffffff1673ffffffffffffffffffffffffffffffffffffffff163373ffffffffffffffffffffffffffffffffffffffff1614905090565b60046020528060005260406000206000915090505481565b6000600160003373ffffffffffffffffffffffffffffffffffffffff1673ffffffffffffffffffffffffffffffffffffffff16815260200190815260200160002060009054906101000a900460ff1615156116d757600080fd5b600060149054906101000a900460ff161515156116f357600080fd5b6116fc826118fa565b15151561170857600080fd5b60026000815480929190600101919050555060806040519081016040528060025481526020018373ffffffffffffffffffffffffffffffffffffffff16815260200160008152602001600115158152506003600060025481526020019081526020016000206000820151816000015560208201518160010160006101000a81548173ffffffffffffffffffffffffffffffffffffffff021916908373ffffffffffffffffffffffffffffffffffffffff1602179055506040820151816002015560608201518160030160006101000a81548160ff021916908315150217905550905050600254600460008473ffffffffffffffffffffffffffffffffffffffff1673ffffffffffffffffffffffffffffffffffffffff168152602001908152602001600020819055507fa1ed230c349ed412e91a9b488b37074c9efc888c447ff9fa1619611def35e98282604051808273ffffffffffffffffffffffffffffffffffffffff1673ffffffffffffffffffffffffffffffffffffffff16815260200180602001828103825260158152602001807f4164646564206e65772073746f72654f776e65722e00000000000000000000008152506020019250505060405180910390a160036000600254815260200190815260200160002060030160009054906101000a900460ff169050919050565b600080600460008473ffffffffffffffffffffffffffffffffffffffff1673ffffffffffffffffffffffffffffffffffffffff1681526020019081526020016000205490506003600082815260200190815260200160002060030160009054906101000a900460ff16915050919050565b611974336118fa565b151561197f57600080fd5b600060149054906101000a900460ff1615151561199b57600080fd5b60056000815480929190600101919050555060e06040519081016040528060055481526020018481526020018381526020018281526020013373ffffffffffffffffffffffffffffffffffffffff168152602001600073ffffffffffffffffffffffffffffffffffffffff16815260200160006002811115611a1957fe5b815250600660006005548152602001908152602001600020600082015181600001556020820151816001019080519060200190611a579291906121f0565b506040820151816002019080519060200190611a749291906121f0565b506060820151816003015560808201518160040160006101000a81548173ffffffffffffffffffffffffffffffffffffffff021916908373ffffffffffffffffffffffffffffffffffffffff16021790555060a08201518160050160006101000a81548173ffffffffffffffffffffffffffffffffffffffff021916908373ffffffffffffffffffffffffffffffffffffffff16021790555060c08201518160050160146101000a81548160ff02191690836002811115611b3157fe5b0217905550905050600760003373ffffffffffffffffffffffffffffffffffffffff1673ffffffffffffffffffffffffffffffffffffffff16815260200190815260200160002060055490806001815401808255809150509060018203906000526020600020016000909192909190915055503373ffffffffffffffffffffffffffffffffffffffff166005547fe2ebb0c522a8b90a93f45a5dfd3c0e0516b81519fdf199efe51c474642fe8cec85846040518080602001838152602001828103825284818151815260200191508051906020019080838360005b83811015611c27578082015181840152602081019050611c0c565b50505050905090810190601f168015611c545780820380516001836020036101000a031916815260200191505b50935050505060405180910390a3505050565b6000600160003373ffffffffffffffffffffffffffffffffffffffff1673ffffffffffffffffffffffffffffffffffffffff16815260200190815260200160002060009054906101000a900460ff161515611cc157600080fd5b600060149054906101000a900460ff16151515611cdd57600080fd5b600082118015611cef57506002548211155b1515611cfa57600080fd5b6003600083815260200190815260200160002060030160009054906101000a900460ff16156003600084815260200190815260200160002060030160006101000a81548160ff0219169083151502179055507fa1ed230c349ed412e91a9b488b37074c9efc888c447ff9fa1619611def35e9826003600084815260200190815260200160002060010160009054906101000a900473ffffffffffffffffffffffffffffffffffffffff16604051808273ffffffffffffffffffffffffffffffffffffffff1673ffffffffffffffffffffffffffffffffffffffff16815260200180602001828103825260238152602001807f4368616e67656420656e726f6c6c6564207374617475732073746f72654f776e81526020017f65722e00000000000000000000000000000000000000000000000000000000008152506040019250505060405180910390a16003600083815260200190815260200160002060030160009054906101000a900460ff169050919050565b6006602052806000526040600020600091509050806000015490806001018054600181600116156101000203166002900480601f016020809104026020016040519081016040528092919081815260200182805460018160011615610100020316600290048015611f215780601f10611ef657610100808354040283529160200191611f21565b820191906000526020600020905b815481529060010190602001808311611f0457829003601f168201915b505050505090806002018054600181600116156101000203166002900480601f016020809104026020016040519081016040528092919081815260200182805460018160011615610100020316600290048015611fbf5780601f10611f9457610100808354040283529160200191611fbf565b820191906000526020600020905b815481529060010190602001808311611fa257829003601f168201915b5050505050908060030154908060040160009054906101000a900473ffffffffffffffffffffffffffffffffffffffff16908060050160009054906101000a900473ffffffffffffffffffffffffffffffffffffffff16908060050160149054906101000a900460ff16905087565b61203661160e565b151561204157600080fd5b61204a816120f6565b50565b6060612058336118fa565b151561206357600080fd5b600760003373ffffffffffffffffffffffffffffffffffffffff1673ffffffffffffffffffffffffffffffffffffffff1681526020019081526020016000208054806020026020016040519081016040528092919081815260200182805480156120ec57602002820191906000526020600020905b8154815260200190600101908083116120d8575b5050505050905090565b600073ffffffffffffffffffffffffffffffffffffffff168173ffffffffffffffffffffffffffffffffffffffff161415151561213257600080fd5b8073ffffffffffffffffffffffffffffffffffffffff166000809054906101000a900473ffffffffffffffffffffffffffffffffffffffff1673ffffffffffffffffffffffffffffffffffffffff167f8be0079c531659141344cd1fd0a4f28419497f9722a3daafe3b4186f6b6457e060405160405180910390a3806000806101000a81548173ffffffffffffffffffffffffffffffffffffffff021916908373ffffffffffffffffffffffffffffffffffffffff16021790555050565b828054600181600116156101000203166002900490600052602060002090601f016020900481019282601f1061223157805160ff191683800117855561225f565b8280016001018555821561225f579182015b8281111561225e578251825591602001919060010190612243565b5b50905061226c9190612270565b5090565b61229291905b8082111561228e576000816000905550600101612276565b5090565b9056fea165627a7a72305820c440b96628f05dad6aeafb22d7f52282912e98eb74ddd52b78e917672c8dc1a50029",
  "source": "pragma solidity 0.5.0;\n\nimport \"client/node_modules/openzeppelin-solidity/contracts/ownership/Ownable.sol\";\nimport \"./CircuitBreaker.sol\";\n\ncontract Marketplace is Ownable, CircuitBreaker{\n\n    //\n    // State variables\n    //\n    mapping (address => bool) public admins;\n\n    uint256 storeOwnersCounter;\n    struct StoreOwner {\n        uint id;\n        address storeOwnerAddress;\n        uint256 balance;\n        bool enrolled;\n    }\n    mapping (uint => StoreOwner) public storeOwners;\n    mapping (address => uint) public storeOwnersIds;\n\n    uint256 articleCounter;\n    enum ArticleState { ForSale, Sold, NoSale }\n    struct Article {\n        uint id;\n        string name;\n        string description;\n        uint256 price;\n        address payable seller;\n        address payable buyer;\n        ArticleState articleState;\n    }\n    mapping (uint => Article) public articles;\n    mapping (address => uint[]) public articleIds;\n\n    //\n    // Modifiers\n    // \n    modifier onlyAdmin(){require(admins[msg.sender]); _;}\n    modifier onlyStoreOwner(){require(checkStoreOwner(msg.sender)); _;}\n    modifier paidEnough(uint _price){require(msg.value >= _price); _;}\n\n    //\n    // Events\n    //\n    event EditAdmin(address _admin, string _action);\n    event EditStoreOwner(address _storeOwner, string _action);\n    event LogSellArticle(uint indexed _id, address indexed _seller, string _name, uint _price);\n    event LogBuyArticle(uint indexed _id, address indexed _buyer, string _name, uint _price);\n\n    //\n    // Functions\n    //\n\n    /////////////////////////////////////////////////////\n    // Owner only functions                            \n    /////////////////////////////////////////////////////\n\n    /** @dev Add an administrator address.\n      * @param newAdmin Address of new admin.\n      * @return True if address is an admin.\n      */\n    function addAdmin(address newAdmin) public onlyOwner returns(bool) {\n        admins[newAdmin] = true;\n        emit EditAdmin(newAdmin, \"Added admin\");\n        return admins[newAdmin];\n    }\n\n    /** @dev Disable an administrator address\n      * @param adminAddress Address of admin\n      * @return False if address is no longer admin\n      */\n    function disableAdmin(address adminAddress) public onlyOwner returns(bool) {\n        admins[adminAddress] = false;\n        emit EditAdmin(adminAddress, \"Disabled admin\");\n        return admins[adminAddress];\n    }\n\n    /////////////////////////////////////////////////////\n    // Admin only functions\n    /////////////////////////////////////////////////////\n\n    /** @dev Add an storeOwner address.\n      * @param newStoreOwner Address of new storeOwner.\n      * @return True if address is a storeOwner.\n      */\n    function addStoreOwner(address newStoreOwner) public onlyAdmin stopIfEmergency returns(bool){\n        require(!checkStoreOwner(newStoreOwner));\n        // if(checkStoreOwner(newStoreOwner)){revert();} \n        storeOwnersCounter++;\n        storeOwners[storeOwnersCounter] = StoreOwner(storeOwnersCounter,newStoreOwner, 0, true);\n        storeOwnersIds[newStoreOwner] = storeOwnersCounter;\n        emit EditStoreOwner(newStoreOwner, \"Added new storeOwner.\");\n        return storeOwners[storeOwnersCounter].enrolled;\n    }\n\n    /** @dev change enrolled status of a storeOwner address\n      * @param id Id of storeOwner\n      * @return False if address is no longer storeOwner\n      */\n    function changeStatusEnrolledStoreOwner(uint id) public onlyAdmin stopIfEmergency returns(bool) {\n        require(id > 0 && id <= storeOwnersCounter);\n        storeOwners[id].enrolled = !storeOwners[id].enrolled;\n        emit EditStoreOwner(storeOwners[id].storeOwnerAddress, \"Changed enrolled status storeOwner.\");\n        return storeOwners[id].enrolled;\n    }  \n\n    /** @dev check if address is storeOwner\n      * @param storeOwnerAddress Address of storeOwner\n      * @return True if address is a storeOwner\n      */\n    function checkStoreOwner(address storeOwnerAddress) public view returns(bool) {\n        uint _id = storeOwnersIds[storeOwnerAddress];\n        return storeOwners[_id].enrolled;\n    }\n\n    /** @dev Get number of storeOwners\n      * @return storeOwnersCounter;\n      */\n    function getNumberOfStoreOwners() public view returns(uint){\n        return storeOwnersCounter;\n    }\n\n    /////////////////////////////////////////////////////\n    // StoreOwner only functions\n    ///////////////////////////////////////////////////// \n\n    /** @dev Add an article for sale\n      * @param name Name of article\n      * @param description Description of article\n      * @param price Price of article\n      */   \n    function sellArticle(string memory name, string memory description, uint256 price) public onlyStoreOwner stopIfEmergency {\n        //check inputs!!\n        articleCounter++;\n\n        articles[articleCounter] = Article (\n            articleCounter,\n            name,\n            description,\n            price,\n            msg.sender,\n            address(0),\n            ArticleState.ForSale\n        );\n\n        articleIds[msg.sender].push(articleCounter);\n        \n        emit LogSellArticle(articleCounter, msg.sender, name, price);\n    }\n\n    /** @dev get articleIds from articles where seller is storeOwner\n      * @return uint[]*/\n    function getArticleIds() public view onlyStoreOwner returns(uint[] memory){\n        return articleIds[msg.sender]; \n    }\n\n    /** @dev change articleState from article\n      * @param articleId id of article\n      * @return true if succeeded\n      */\n    function changeArticleState(uint256 articleId) public onlyStoreOwner stopIfEmergency returns(bool){\n        require(articleId <= articleCounter);\n        if(articles[articleId].articleState == ArticleState.ForSale){\n            articles[articleId].articleState = ArticleState.NoSale;\n        } else if(articles[articleId].articleState == ArticleState.NoSale){\n            articles[articleId].articleState = ArticleState.ForSale;\n        }\n        return true;\n    }\n\n    /** @dev Withdraw ammount stored in balance of the storeOwner\n        @return true if succeeded\n      */\n    function withdraw(address storeOwnerAddress) public onlyStoreOwner stopIfEmergency returns(bool){\n        require(storeOwnerAddress == msg.sender);\n\n        uint id = storeOwnersIds[storeOwnerAddress];\n        uint amount = storeOwners[id].balance;\n\n        require(amount != 0);\n\n        storeOwners[id].balance -= amount;\n        msg.sender.transfer(amount);\n\n        return true;\n    }\n\n    /////////////////////////////////////////////////////\n    // Client only functions\n    ///////////////////////////////////////////////////// \n    /** @dev get articles for sale\n      */\n    function getArticlesForSale() public view returns(uint[] memory){\n        uint[] memory articleIdsForSale = new uint[](articleCounter);\n\n        uint numberOfArticlesForSale = 0;\n        // iterate over articles\n        for(uint i = 1; i <= articleCounter;  i++) {\n          // keep the ID if the article is still for sale\n            if(articles[i].articleState == ArticleState.ForSale) {\n                articleIdsForSale[numberOfArticlesForSale] = articles[i].id;\n                numberOfArticlesForSale++;\n            }\n        }\n\n        // copy the articleIds array into a smaller forSale array\n        uint[] memory forSale = new uint[](numberOfArticlesForSale);\n        for(uint j = 0; j < numberOfArticlesForSale; j++) {\n            forSale[j] = articleIdsForSale[j];\n        }\n        return forSale;\n    }\n\n    /** @dev Buy an article\n      */\n        function buyArticle(uint _id) public payable paidEnough(articles[_id].price) stopIfEmergency{\n        // we check whether there is an article for sale & article Exists\n        require(articleCounter > 0);\n        require(_id > 0 && _id <= articleCounter);\n\n        Article storage article = articles[_id];\n        require(article.buyer == address(0));\n        require(msg.sender != article.seller);\n\n        article.buyer = msg.sender;\n        article.articleState = ArticleState.Sold;\n\n        uint storeOwnerId = storeOwnersIds[article.seller];\n        storeOwners[storeOwnerId].balance += msg.value;\n    }\n\n}",
  "sourcePath": "/home/jm/Consensys/marketplace-dapp/contracts/Marketplace.sol",
  "compiler": {
    "name": "solc",
    "version": "0.5.0+commit.1d4f565a.Emscripten.clang"
  },
  "schemaVersion": "3.0.0",
  "updatedAt": "2019-01-24T15:24:00.663Z",
  "devdoc": {
    "methods": {
      "addAdmin(address)": {
        "details": "Add an administrator address.",
        "params": {
          "newAdmin": "Address of new admin."
        },
        "return": "True if address is an admin."
      },
      "addStoreOwner(address)": {
        "details": "Add an storeOwner address.",
        "params": {
          "newStoreOwner": "Address of new storeOwner."
        },
        "return": "True if address is a storeOwner."
      },
      "buyArticle(uint256)": {
        "details": "Buy an article"
      },
      "changeArticleState(uint256)": {
        "details": "change articleState from article",
        "params": {
          "articleId": "id of article"
        },
        "return": "true if succeeded"
      },
      "changeStatusEnrolledStoreOwner(uint256)": {
        "details": "change enrolled status of a storeOwner address",
        "params": {
          "id": "Id of storeOwner"
        },
        "return": "False if address is no longer storeOwner"
      },
      "checkStoreOwner(address)": {
        "details": "check if address is storeOwner",
        "params": {
          "storeOwnerAddress": "Address of storeOwner"
        },
        "return": "True if address is a storeOwner"
      },
      "disableAdmin(address)": {
        "details": "Disable an administrator address",
        "params": {
          "adminAddress": "Address of admin"
        },
        "return": "False if address is no longer admin"
      },
      "getArticleIds()": {
        "details": "get articleIds from articles where seller is storeOwner",
        "return": "uint[]"
      },
      "getArticlesForSale()": {
        "details": "get articles for sale"
      },
      "getNumberOfStoreOwners()": {
        "details": "Get number of storeOwners",
        "return": "storeOwnersCounter;"
      },
      "isOwner()": {
        "return": "true if `msg.sender` is the owner of the contract."
      },
      "owner()": {
        "return": "the address of the owner."
      },
      "renounceOwnership()": {
        "details": "Allows the current owner to relinquish control of the contract."
      },
      "sellArticle(string,string,uint256)": {
        "details": "Add an article for sale",
        "params": {
          "description": "Description of article",
          "name": "Name of article",
          "price": "Price of article"
        }
      },
      "transferOwnership(address)": {
        "details": "Allows the current owner to transfer control of the contract to a newOwner.",
        "params": {
          "newOwner": "The address to transfer ownership to."
        }
      },
      "withdraw(address)": {
        "details": "Withdraw ammount stored in balance of the storeOwner",
        "return": "true if succeeded"
      }
    }
  },
  "userdoc": {
    "methods": {
      "renounceOwnership()": {
        "notice": "Renouncing to ownership will leave the contract without an owner. It will not be possible to call the functions with the `onlyOwner` modifier anymore."
      }
    }
  }
}