{
  "contractName": "Marketplace",
  "abi": [
    {
      "constant": true,
      "inputs": [
        {
          "name": "",
          "type": "address"
        }
      ],
      "name": "admins",
      "outputs": [
        {
          "name": "",
          "type": "bool"
        }
      ],
      "payable": false,
      "stateMutability": "view",
      "type": "function",
      "signature": "0x429b62e5"
    },
    {
      "constant": true,
      "inputs": [
        {
          "name": "",
          "type": "uint256"
        }
      ],
      "name": "storeOwners",
      "outputs": [
        {
          "name": "storeOwnerAddress",
          "type": "address"
        },
        {
          "name": "balance",
          "type": "uint256"
        },
        {
          "name": "enrolled",
          "type": "bool"
        }
      ],
      "payable": false,
      "stateMutability": "view",
      "type": "function",
      "signature": "0x44d50993"
    },
    {
      "constant": true,
      "inputs": [],
      "name": "owner",
      "outputs": [
        {
          "name": "",
          "type": "address"
        }
      ],
      "payable": false,
      "stateMutability": "view",
      "type": "function",
      "signature": "0x8da5cb5b"
    },
    {
      "constant": true,
      "inputs": [
        {
          "name": "",
          "type": "address"
        }
      ],
      "name": "storeOwnersIds",
      "outputs": [
        {
          "name": "",
          "type": "uint256"
        }
      ],
      "payable": false,
      "stateMutability": "view",
      "type": "function",
      "signature": "0x9a9a0775"
    },
    {
      "anonymous": false,
      "inputs": [
        {
          "indexed": false,
          "name": "admin",
          "type": "address"
        },
        {
          "indexed": false,
          "name": "action",
          "type": "string"
        }
      ],
      "name": "EditAdmin",
      "type": "event",
      "signature": "0xc20e1fd1703f17fb02c5216184ebcc3f07f525e751b7b22f9912b32de061a4f6"
    },
    {
      "anonymous": false,
      "inputs": [
        {
          "indexed": false,
          "name": "storeOwner",
          "type": "address"
        },
        {
          "indexed": false,
          "name": "action",
          "type": "string"
        }
      ],
      "name": "EditStoreOwner",
      "type": "event",
      "signature": "0xa1ed230c349ed412e91a9b488b37074c9efc888c447ff9fa1619611def35e982"
    },
    {
      "constant": false,
      "inputs": [
        {
          "name": "newAdmin",
          "type": "address"
        }
      ],
      "name": "addAdmin",
      "outputs": [
        {
          "name": "",
          "type": "bool"
        }
      ],
      "payable": false,
      "stateMutability": "nonpayable",
      "type": "function",
      "signature": "0x70480275"
    },
    {
      "constant": false,
      "inputs": [
        {
          "name": "adminAddress",
          "type": "address"
        }
      ],
      "name": "disableAdmin",
      "outputs": [
        {
          "name": "",
          "type": "bool"
        }
      ],
      "payable": false,
      "stateMutability": "nonpayable",
      "type": "function",
      "signature": "0x751e9a9c"
    },
    {
      "constant": false,
      "inputs": [
        {
          "name": "newStoreOwner",
          "type": "address"
        }
      ],
      "name": "addStoreOwner",
      "outputs": [
        {
          "name": "",
          "type": "bool"
        }
      ],
      "payable": false,
      "stateMutability": "nonpayable",
      "type": "function",
      "signature": "0x9adeb5f1"
    },
    {
      "constant": false,
      "inputs": [
        {
          "name": "storeOwnerAddress",
          "type": "address"
        }
      ],
      "name": "disableStoreOwner",
      "outputs": [
        {
          "name": "",
          "type": "bool"
        }
      ],
      "payable": false,
      "stateMutability": "nonpayable",
      "type": "function",
      "signature": "0x4fa307bb"
    },
    {
      "constant": true,
      "inputs": [
        {
          "name": "storeOwnerAddress",
          "type": "address"
        }
      ],
      "name": "checkStoreOwner",
      "outputs": [
        {
          "name": "",
          "type": "bool"
        }
      ],
      "payable": false,
      "stateMutability": "view",
      "type": "function",
      "signature": "0xa14d9098"
    },
    {
      "constant": true,
      "inputs": [],
      "name": "getStoreOwners",
      "outputs": [
        {
          "name": "",
          "type": "address[]"
        }
      ],
      "payable": false,
      "stateMutability": "view",
      "type": "function",
      "signature": "0x91f4245a"
    },
    {
      "constant": false,
      "inputs": [
        {
          "name": "x",
          "type": "uint256"
        }
      ],
      "name": "set",
      "outputs": [],
      "payable": false,
      "stateMutability": "nonpayable",
      "type": "function",
      "signature": "0x60fe47b1"
    },
    {
      "constant": true,
      "inputs": [],
      "name": "get",
      "outputs": [
        {
          "name": "",
          "type": "uint256"
        }
      ],
      "payable": false,
      "stateMutability": "view",
      "type": "function",
      "signature": "0x6d4ce63c"
    }
  ],
  "bytecode": "0x6080604052336000806101000a81548173ffffffffffffffffffffffffffffffffffffffff021916908373ffffffffffffffffffffffffffffffffffffffff160217905550610f8f806100536000396000f3fe6080604052600436106100ba576000357c0100000000000000000000000000000000000000000000000000000000900463ffffffff168063429b62e5146100bf57806344d50993146101285780634fa307bb146101b557806360fe47b11461021e5780636d4ce63c146102595780637048027514610284578063751e9a9c146102ed5780638da5cb5b1461035657806391f4245a146103ad5780639a9a0775146104195780639adeb5f11461047e578063a14d9098146104e7575b600080fd5b3480156100cb57600080fd5b5061010e600480360360208110156100e257600080fd5b81019080803573ffffffffffffffffffffffffffffffffffffffff169060200190929190505050610550565b604051808215151515815260200191505060405180910390f35b34801561013457600080fd5b506101616004803603602081101561014b57600080fd5b8101908080359060200190929190505050610570565b604051808473ffffffffffffffffffffffffffffffffffffffff1673ffffffffffffffffffffffffffffffffffffffff16815260200183815260200182151515158152602001935050505060405180910390f35b3480156101c157600080fd5b50610204600480360360208110156101d857600080fd5b81019080803573ffffffffffffffffffffffffffffffffffffffff1690602001909291905050506105c7565b604051808215151515815260200191505060405180910390f35b34801561022a57600080fd5b506102576004803603602081101561024157600080fd5b8101908080359060200190929190505050610765565b005b34801561026557600080fd5b5061026e61076f565b6040518082815260200191505060405180910390f35b34801561029057600080fd5b506102d3600480360360208110156102a757600080fd5b81019080803573ffffffffffffffffffffffffffffffffffffffff169060200190929190505050610779565b604051808215151515815260200191505060405180910390f35b3480156102f957600080fd5b5061033c6004803603602081101561031057600080fd5b81019080803573ffffffffffffffffffffffffffffffffffffffff16906020019092919050505061091d565b604051808215151515815260200191505060405180910390f35b34801561036257600080fd5b5061036b610ac2565b604051808273ffffffffffffffffffffffffffffffffffffffff1673ffffffffffffffffffffffffffffffffffffffff16815260200191505060405180910390f35b3480156103b957600080fd5b506103c2610ae7565b6040518080602001828103825283818151815260200191508051906020019060200280838360005b838110156104055780820151818401526020810190506103ea565b505050509050019250505060405180910390f35b34801561042557600080fd5b506104686004803603602081101561043c57600080fd5b81019080803573ffffffffffffffffffffffffffffffffffffffff169060200190929190505050610c24565b6040518082815260200191505060405180910390f35b34801561048a57600080fd5b506104cd600480360360208110156104a157600080fd5b81019080803573ffffffffffffffffffffffffffffffffffffffff169060200190929190505050610c3c565b604051808215151515815260200191505060405180910390f35b3480156104f357600080fd5b506105366004803603602081101561050a57600080fd5b81019080803573ffffffffffffffffffffffffffffffffffffffff169060200190929190505050610e92565b604051808215151515815260200191505060405180910390f35b60016020528060005260406000206000915054906101000a900460ff1681565b60036020528060005260406000206000915090508060000160009054906101000a900473ffffffffffffffffffffffffffffffffffffffff16908060010154908060020160009054906101000a900460ff16905083565b600060011515600160003373ffffffffffffffffffffffffffffffffffffffff1673ffffffffffffffffffffffffffffffffffffffff16815260200190815260200160002060009054906101000a900460ff16151514151561062857600080fd5b6000600460008473ffffffffffffffffffffffffffffffffffffffff1673ffffffffffffffffffffffffffffffffffffffff16815260200190815260200160002054905060006003600083815260200190815260200160002060020160006101000a81548160ff0219169083151502179055507fa1ed230c349ed412e91a9b488b37074c9efc888c447ff9fa1619611def35e98283604051808273ffffffffffffffffffffffffffffffffffffffff1673ffffffffffffffffffffffffffffffffffffffff16815260200180602001828103825260148152602001807f44697361626c65642073746f72654f776e65722e0000000000000000000000008152506020019250505060405180910390a160036000600254815260200190815260200160002060020160009054906101000a900460ff16915050919050565b8060058190555050565b6000600554905090565b60008060009054906101000a900473ffffffffffffffffffffffffffffffffffffffff1673ffffffffffffffffffffffffffffffffffffffff163373ffffffffffffffffffffffffffffffffffffffff161415156107d657600080fd5b60018060008473ffffffffffffffffffffffffffffffffffffffff1673ffffffffffffffffffffffffffffffffffffffff16815260200190815260200160002060006101000a81548160ff0219169083151502179055507fc20e1fd1703f17fb02c5216184ebcc3f07f525e751b7b22f9912b32de061a4f682604051808273ffffffffffffffffffffffffffffffffffffffff1673ffffffffffffffffffffffffffffffffffffffff168152602001806020018281038252600b8152602001807f41646465642061646d696e0000000000000000000000000000000000000000008152506020019250505060405180910390a1600160008373ffffffffffffffffffffffffffffffffffffffff1673ffffffffffffffffffffffffffffffffffffffff16815260200190815260200160002060009054906101000a900460ff169050919050565b60008060009054906101000a900473ffffffffffffffffffffffffffffffffffffffff1673ffffffffffffffffffffffffffffffffffffffff163373ffffffffffffffffffffffffffffffffffffffff1614151561097a57600080fd5b6000600160008473ffffffffffffffffffffffffffffffffffffffff1673ffffffffffffffffffffffffffffffffffffffff16815260200190815260200160002060006101000a81548160ff0219169083151502179055507fc20e1fd1703f17fb02c5216184ebcc3f07f525e751b7b22f9912b32de061a4f682604051808273ffffffffffffffffffffffffffffffffffffffff1673ffffffffffffffffffffffffffffffffffffffff168152602001806020018281038252600e8152602001807f44697361626c65642061646d696e0000000000000000000000000000000000008152506020019250505060405180910390a1600160008373ffffffffffffffffffffffffffffffffffffffff1673ffffffffffffffffffffffffffffffffffffffff16815260200190815260200160002060009054906101000a900460ff169050919050565b6000809054906101000a900473ffffffffffffffffffffffffffffffffffffffff1681565b606060011515600160003373ffffffffffffffffffffffffffffffffffffffff1673ffffffffffffffffffffffffffffffffffffffff16815260200190815260200160002060009054906101000a900460ff161515141515610b4857600080fd5b6060600254604051908082528060200260200182016040528015610b7b5781602001602082028038833980820191505090505b5090506000600190505b6002811015610c1c576003600082815260200190815260200160002060000160009054906101000a900473ffffffffffffffffffffffffffffffffffffffff168282815181101515610bd357fe5b9060200190602002019073ffffffffffffffffffffffffffffffffffffffff16908173ffffffffffffffffffffffffffffffffffffffff16815250508080600101915050610b85565b508091505090565b60046020528060005260406000206000915090505481565b600060011515600160003373ffffffffffffffffffffffffffffffffffffffff1673ffffffffffffffffffffffffffffffffffffffff16815260200190815260200160002060009054906101000a900460ff161515141515610c9d57600080fd5b600260008154809291906001019190505550610cb882610e92565b151515610cc457600080fd5b6060604051908101604052808373ffffffffffffffffffffffffffffffffffffffff168152602001600081526020016001151581525060036000600254815260200190815260200160002060008201518160000160006101000a81548173ffffffffffffffffffffffffffffffffffffffff021916908373ffffffffffffffffffffffffffffffffffffffff1602179055506020820151816001015560408201518160020160006101000a81548160ff021916908315150217905550905050600254600460008473ffffffffffffffffffffffffffffffffffffffff1673ffffffffffffffffffffffffffffffffffffffff168152602001908152602001600020819055507fa1ed230c349ed412e91a9b488b37074c9efc888c447ff9fa1619611def35e98282604051808273ffffffffffffffffffffffffffffffffffffffff1673ffffffffffffffffffffffffffffffffffffffff16815260200180602001828103825260158152602001807f4164646564206e65772073746f72654f776e65722e00000000000000000000008152506020019250505060405180910390a160036000600254815260200190815260200160002060020160009054906101000a900460ff169050919050565b600060011515600160003373ffffffffffffffffffffffffffffffffffffffff1673ffffffffffffffffffffffffffffffffffffffff16815260200190815260200160002060009054906101000a900460ff161515141515610ef357600080fd5b6000600460008473ffffffffffffffffffffffffffffffffffffffff1673ffffffffffffffffffffffffffffffffffffffff1681526020019081526020016000205490506003600082815260200190815260200160002060020160009054906101000a900460ff1691505091905056fea165627a7a72305820a5aad52c3879a1d840f4a7df0f373f453e76afb3a7922c71d4e5b2c02f4c18980029",
  "source": "pragma solidity ^0.5.0;\n\nimport \"./Ownable.sol\";\n\ncontract Marketplace is Ownable{\n\n    //\n    // State variables\n    //\n    mapping (address => bool) public admins;\n\n    uint256 storeOwnersCounter;\n    struct StoreOwner {\n        address storeOwnerAddress;\n        uint256 balance;\n        bool enrolled;\n    }\n    mapping (uint => StoreOwner) public storeOwners;\n    mapping (address => uint) public storeOwnersIds;\n\n    //\n    // Modifiers\n    // \n    modifier onlyAdmin(){\n        require(admins[msg.sender] == true);\n        _;\n    }\n\n    //\n    // Events\n    //\n    event EditAdmin(address admin, string action);\n    event EditStoreOwner(address storeOwner, string action);\n\n    //\n    // Functions\n    //\n\n    /////////////////////////////////////////////////////\n    // Owner only functions                            \n    /////////////////////////////////////////////////////\n\n    /** @dev Add an administrator address.\n      * @param newAdmin Address of new admin.\n      * @return True if address is an admin.\n      */\n    function addAdmin(address newAdmin) public onlyOwner returns(bool) {\n        admins[newAdmin] = true;\n        emit EditAdmin(newAdmin, \"Added admin\");\n        return admins[newAdmin];\n    }\n\n    /** @dev Disable an administrator address\n      * @param adminAddress Address of admin\n      * @return False if address is no longer admin\n      */\n    function disableAdmin(address adminAddress) public onlyOwner returns(bool) {\n        admins[adminAddress] = false;\n        emit EditAdmin(adminAddress, \"Disabled admin\");\n        return admins[adminAddress];\n    }\n\n\n    /////////////////////////////////////////////////////\n    // Admin only functions\n    /////////////////////////////////////////////////////\n\n    /** @dev Add an storeOwner address.\n      * @param newStoreOwner Address of new storeOwner.\n      * @return True if address is a storeOwner.\n      */\n    function addStoreOwner(address newStoreOwner) public onlyAdmin returns(bool) {\n        storeOwnersCounter++;\n        require(!checkStoreOwner(newStoreOwner));\n        storeOwners[storeOwnersCounter] = StoreOwner(newStoreOwner, 0, true);\n        storeOwnersIds[newStoreOwner] = storeOwnersCounter;\n        emit EditStoreOwner(newStoreOwner, \"Added new storeOwner.\");\n        return storeOwners[storeOwnersCounter].enrolled;\n    }\n\n    /** @dev Disable a storeOwner address\n      * @param storeOwnerAddress Address of storeOwner\n      * @return False if address is no longer storeOwner\n      */\n    function disableStoreOwner(address storeOwnerAddress) public onlyAdmin returns(bool) {\n        uint _id = storeOwnersIds[storeOwnerAddress];\n        storeOwners[_id].enrolled = false;\n        emit EditStoreOwner(storeOwnerAddress, \"Disabled storeOwner.\");\n        return storeOwners[storeOwnersCounter].enrolled;\n    }  \n\n    /** @dev check if address is storeOwner\n      * @param storeOwnerAddress Address of storeOwner\n      * @return True if address is a storeOwner\n      */\n    function checkStoreOwner(address storeOwnerAddress) public view onlyAdmin returns(bool) {\n        uint _id = storeOwnersIds[storeOwnerAddress];\n        return storeOwners[_id].enrolled;\n    }\n\n    /** @dev Get array of storeOwner addresses\n      * @return Array of storeOwner addresses\n      */\n    function getStoreOwners() public view onlyAdmin returns(address[] memory) {\n        address[] memory _storeOwners = new address[](storeOwnersCounter);\n        for (uint i = 1; i < 2; i++) {\n            _storeOwners[i] = storeOwners[i].storeOwnerAddress;            \n        }\n        return _storeOwners;\n    }\n\n    /////////////////////////////////////////////////////\n    // StoreOwner only functions\n    /////////////////////////////////////////////////////    \n\n\n    // -----------------------------------------------------------------\n    // Test code\n    uint storedData;\n    function set(uint x) public {\n        storedData = x;\n    }\n    function get() public view returns (uint) {\n        return storedData;\n    }\n}",
  "sourcePath": "/home/jm/Consensys/marketplace-dapp/contracts/Marketplace.sol",
  "compiler": {
    "name": "solc",
    "version": "0.5.0+commit.1d4f565a.Emscripten.clang"
  },
  "schemaVersion": "3.0.0",
  "updatedAt": "2019-01-09T18:27:40.072Z",
  "devdoc": {
    "methods": {
      "addAdmin(address)": {
        "details": "Add an administrator address.",
        "params": {
          "newAdmin": "Address of new admin."
        },
        "return": "True if address is an admin."
      },
      "addStoreOwner(address)": {
        "details": "Add an storeOwner address.",
        "params": {
          "newStoreOwner": "Address of new storeOwner."
        },
        "return": "True if address is a storeOwner."
      },
      "checkStoreOwner(address)": {
        "details": "check if address is storeOwner",
        "params": {
          "storeOwnerAddress": "Address of storeOwner"
        },
        "return": "True if address is a storeOwner"
      },
      "disableAdmin(address)": {
        "details": "Disable an administrator address",
        "params": {
          "adminAddress": "Address of admin"
        },
        "return": "False if address is no longer admin"
      },
      "disableStoreOwner(address)": {
        "details": "Disable a storeOwner address",
        "params": {
          "storeOwnerAddress": "Address of storeOwner"
        },
        "return": "False if address is no longer storeOwner"
      },
      "getStoreOwners()": {
        "details": "Get array of storeOwner addresses",
        "return": "Array of storeOwner addresses"
      }
    }
  },
  "userdoc": {
    "methods": {}
  }
}